{
  "address": "0xf3a7E292c8f6a9A9dA9C9c9A51C34C70583517d9",
  "abi": [
    {
      "inputs": [
        {
          "internalType": "address",
          "name": "vrfCoordinatorV2",
          "type": "address"
        },
        {
          "internalType": "uint256",
          "name": "entranceFee",
          "type": "uint256"
        },
        {
          "internalType": "bytes32",
          "name": "gaslane",
          "type": "bytes32"
        },
        {
          "internalType": "uint64",
          "name": "subscriptionId",
          "type": "uint64"
        },
        {
          "internalType": "uint32",
          "name": "callbackGasLimit",
          "type": "uint32"
        },
        {
          "internalType": "uint256",
          "name": "interval",
          "type": "uint256"
        }
      ],
      "stateMutability": "nonpayable",
      "type": "constructor"
    },
    {
      "inputs": [
        {
          "internalType": "address",
          "name": "have",
          "type": "address"
        },
        {
          "internalType": "address",
          "name": "want",
          "type": "address"
        }
      ],
      "name": "OnlyCoordinatorCanFulfill",
      "type": "error"
    },
    {
      "inputs": [],
      "name": "Raffle__NotEnoughETHEntered",
      "type": "error"
    },
    {
      "inputs": [],
      "name": "Raffle__NotOpen",
      "type": "error"
    },
    {
      "inputs": [],
      "name": "Raffle__TransferFailed",
      "type": "error"
    },
    {
      "inputs": [
        {
          "internalType": "uint256",
          "name": "currentBalance",
          "type": "uint256"
        },
        {
          "internalType": "uint256",
          "name": "numPlayers",
          "type": "uint256"
        },
        {
          "internalType": "uint256",
          "name": "raffleStates",
          "type": "uint256"
        }
      ],
      "name": "Raffle__UpkeepNotNeeded",
      "type": "error"
    },
    {
      "anonymous": false,
      "inputs": [
        {
          "indexed": true,
          "internalType": "address",
          "name": "player",
          "type": "address"
        }
      ],
      "name": "RaffleEnter",
      "type": "event"
    },
    {
      "anonymous": false,
      "inputs": [
        {
          "indexed": true,
          "internalType": "uint256",
          "name": "requestId",
          "type": "uint256"
        }
      ],
      "name": "RequestedRaffleWinner",
      "type": "event"
    },
    {
      "anonymous": false,
      "inputs": [
        {
          "indexed": true,
          "internalType": "address",
          "name": "winner",
          "type": "address"
        }
      ],
      "name": "WinnerPicked",
      "type": "event"
    },
    {
      "inputs": [
        {
          "internalType": "bytes",
          "name": "",
          "type": "bytes"
        }
      ],
      "name": "checkUpkeep",
      "outputs": [
        {
          "internalType": "bool",
          "name": "upKeepNeeded",
          "type": "bool"
        },
        {
          "internalType": "bytes",
          "name": "",
          "type": "bytes"
        }
      ],
      "stateMutability": "nonpayable",
      "type": "function"
    },
    {
      "inputs": [],
      "name": "enterRaffle",
      "outputs": [],
      "stateMutability": "payable",
      "type": "function"
    },
    {
      "inputs": [],
      "name": "getEntranceFee",
      "outputs": [
        {
          "internalType": "uint256",
          "name": "",
          "type": "uint256"
        }
      ],
      "stateMutability": "view",
      "type": "function"
    },
    {
      "inputs": [],
      "name": "getInterval",
      "outputs": [
        {
          "internalType": "uint256",
          "name": "",
          "type": "uint256"
        }
      ],
      "stateMutability": "view",
      "type": "function"
    },
    {
      "inputs": [],
      "name": "getLastestTimeStamp",
      "outputs": [
        {
          "internalType": "uint256",
          "name": "",
          "type": "uint256"
        }
      ],
      "stateMutability": "view",
      "type": "function"
    },
    {
      "inputs": [],
      "name": "getNumWords",
      "outputs": [
        {
          "internalType": "uint256",
          "name": "",
          "type": "uint256"
        }
      ],
      "stateMutability": "pure",
      "type": "function"
    },
    {
      "inputs": [],
      "name": "getNumberOfPlayers",
      "outputs": [
        {
          "internalType": "uint256",
          "name": "",
          "type": "uint256"
        }
      ],
      "stateMutability": "view",
      "type": "function"
    },
    {
      "inputs": [
        {
          "internalType": "uint256",
          "name": "index",
          "type": "uint256"
        }
      ],
      "name": "getPlayer",
      "outputs": [
        {
          "internalType": "address",
          "name": "",
          "type": "address"
        }
      ],
      "stateMutability": "view",
      "type": "function"
    },
    {
      "inputs": [],
      "name": "getRaffleState",
      "outputs": [
        {
          "internalType": "enum Raffle.RaffleState",
          "name": "",
          "type": "uint8"
        }
      ],
      "stateMutability": "view",
      "type": "function"
    },
    {
      "inputs": [],
      "name": "getRecentWinner",
      "outputs": [
        {
          "internalType": "address",
          "name": "",
          "type": "address"
        }
      ],
      "stateMutability": "view",
      "type": "function"
    },
    {
      "inputs": [],
      "name": "getRequestConfirmations",
      "outputs": [
        {
          "internalType": "uint256",
          "name": "",
          "type": "uint256"
        }
      ],
      "stateMutability": "pure",
      "type": "function"
    },
    {
      "inputs": [
        {
          "internalType": "bytes",
          "name": "",
          "type": "bytes"
        }
      ],
      "name": "performUpkeep",
      "outputs": [],
      "stateMutability": "nonpayable",
      "type": "function"
    },
    {
      "inputs": [
        {
          "internalType": "uint256",
          "name": "requestId",
          "type": "uint256"
        },
        {
          "internalType": "uint256[]",
          "name": "randomWords",
          "type": "uint256[]"
        }
      ],
      "name": "rawFulfillRandomWords",
      "outputs": [],
      "stateMutability": "nonpayable",
      "type": "function"
    }
  ],
  "transactionHash": "0x411f1f7682249e5606e1ceb41cf4011baf281c033ff2385f23fdcc4b301fd04f",
  "args": [
    "0x2Ca8E0C643bDe4C2E08ab1fA0da3401AdAD7734D",
    "10000000000000000",
    "0x79d3d8832d904592c0bf9818b621522c988bb8b0c05cdc3b15aea1b6e8db0c15",
    "762",
    "500000",
    "30"
  ],
  "numDeployments": 4,
  "solcInputHash": "e687975472890644c9968a95c7909162",
  "bytecode": "0x6101606040523480156200001257600080fd5b5060405162001b5038038062001b50833981810160405281019062000038919062000294565b858073ffffffffffffffffffffffffffffffffffffffff1660808173ffffffffffffffffffffffffffffffffffffffff1681525050508460a081815250508573ffffffffffffffffffffffffffffffffffffffff1660c08173ffffffffffffffffffffffffffffffffffffffff16815250508360e081815250508267ffffffffffffffff166101008167ffffffffffffffff16815250508163ffffffff166101208163ffffffff16815250506000600160146101000a81548160ff021916908360018111156200010d576200010c62000330565b5b0217905550426002819055508061014081815250505050505050506200035f565b600080fd5b600073ffffffffffffffffffffffffffffffffffffffff82169050919050565b6000620001608262000133565b9050919050565b620001728162000153565b81146200017e57600080fd5b50565b600081519050620001928162000167565b92915050565b6000819050919050565b620001ad8162000198565b8114620001b957600080fd5b50565b600081519050620001cd81620001a2565b92915050565b6000819050919050565b620001e881620001d3565b8114620001f457600080fd5b50565b6000815190506200020881620001dd565b92915050565b600067ffffffffffffffff82169050919050565b6200022d816200020e565b81146200023957600080fd5b50565b6000815190506200024d8162000222565b92915050565b600063ffffffff82169050919050565b6200026e8162000253565b81146200027a57600080fd5b50565b6000815190506200028e8162000263565b92915050565b60008060008060008060c08789031215620002b457620002b36200012e565b5b6000620002c489828a0162000181565b9650506020620002d789828a01620001bc565b9550506040620002ea89828a01620001f7565b9450506060620002fd89828a016200023c565b93505060806200031089828a016200027d565b92505060a06200032389828a01620001bc565b9150509295509295509295565b7f4e487b7100000000000000000000000000000000000000000000000000000000600052602160045260246000fd5b60805160a05160c05160e051610100516101205161014051611781620003cf600039600081816107ec01526108930152600061069b01526000610678015260006106570152600061061b0152600081816102fa01526103f7015260008181610337015261038b01526117816000f3fe6080604052600436106100c25760003560e01c806353a2c19a1161007f5780638ba05b0e116100595780638ba05b0e1461023857806391ad27b414610263578063e55ae4e81461028e578063fd6673f5146102cb576100c2565b806353a2c19a146101a45780635f1b0fd8146101cf5780636e04ff0d146101fa576100c2565b806309bc33a7146100c7578063115cbaf5146100f25780631fe543e31461011d5780632cfcc539146101465780634585e33b14610150578063473f1ddc14610179575b600080fd5b3480156100d357600080fd5b506100dc6102f6565b6040516100e99190610e94565b60405180910390f35b3480156100fe57600080fd5b5061010761031e565b6040516101149190610f26565b60405180910390f35b34801561012957600080fd5b50610144600480360381019061013f91906110da565b610335565b005b61014e6103f5565b005b34801561015c57600080fd5b5061017760048036038101906101729190611191565b610564565b005b34801561018557600080fd5b5061018e610763565b60405161019b919061121f565b60405180910390f35b3480156101b057600080fd5b506101b961078d565b6040516101c69190610e94565b60405180910390f35b3480156101db57600080fd5b506101e461079c565b6040516101f19190610e94565b60405180910390f35b34801561020657600080fd5b50610221600480360381019061021c91906112ef565b6107a9565b60405161022f9291906113db565b60405180910390f35b34801561024457600080fd5b5061024d610885565b60405161025a9190610e94565b60405180910390f35b34801561026f57600080fd5b5061027861088f565b6040516102859190610e94565b60405180910390f35b34801561029a57600080fd5b506102b560048036038101906102b0919061140b565b6108b7565b6040516102c2919061121f565b60405180910390f35b3480156102d757600080fd5b506102e06108fe565b6040516102ed9190610e94565b60405180910390f35b60007f0000000000000000000000000000000000000000000000000000000000000000905090565b6000600160149054906101000a900460ff16905090565b7f000000000000000000000000000000000000000000000000000000000000000073ffffffffffffffffffffffffffffffffffffffff163373ffffffffffffffffffffffffffffffffffffffff16146103e757337f00000000000000000000000000000000000000000000000000000000000000006040517f1cf993f40000000000000000000000000000000000000000000000000000000081526004016103de929190611438565b60405180910390fd5b6103f1828261090a565b5050565b7f000000000000000000000000000000000000000000000000000000000000000034101561044f576040517fbd4e069500000000000000000000000000000000000000000000000000000000815260040160405180910390fd5b6000600181111561046357610462610eaf565b5b600160149054906101000a900460ff16600181111561048557610484610eaf565b5b146104bc576040517f1425571c00000000000000000000000000000000000000000000000000000000815260040160405180910390fd5b6000339080600181540180825580915050600190039060005260206000200160009091909190916101000a81548173ffffffffffffffffffffffffffffffffffffffff021916908373ffffffffffffffffffffffffffffffffffffffff1602179055503373ffffffffffffffffffffffffffffffffffffffff167f0805e1d667bddb8a95f0f09880cf94f403fb596ce79928d9f29b74203ba284d460405160405180910390a2565b600061057e604051806020016040528060008152506107a9565b509050806105ed5747600080549050600160149054906101000a900460ff1660018111156105af576105ae610eaf565b5b6040517f584327aa0000000000000000000000000000000000000000000000000000000081526004016105e493929190611461565b60405180910390fd5b60018060146101000a81548160ff0219169083600181111561061257610611610eaf565b5b021790555060007f000000000000000000000000000000000000000000000000000000000000000073ffffffffffffffffffffffffffffffffffffffff16635d3b1d307f00000000000000000000000000000000000000000000000000000000000000007f000000000000000000000000000000000000000000000000000000000000000060037f000000000000000000000000000000000000000000000000000000000000000060016040518663ffffffff1660e01b81526004016106dc959493929190611510565b602060405180830381600087803b1580156106f657600080fd5b505af115801561070a573d6000803e3d6000fd5b505050506040513d601f19601f8201168201806040525081019061072e9190611578565b9050807fcd6e45c8998311cab7e9d4385596cac867e20a0587194b954fa3a731c93ce78b60405160405180910390a250505050565b6000600160009054906101000a900473ffffffffffffffffffffffffffffffffffffffff16905090565b6000600163ffffffff16905090565b6000600361ffff16905090565b600060606000600160149054906101000a900460ff1660018111156107d1576107d0610eaf565b5b600060018111156107e5576107e4610eaf565b5b14905060007f00000000000000000000000000000000000000000000000000000000000000006002544261081991906115d4565b1190506000806000805490501190506000804711905061083b84848484610b3b565b61084742600254610bdd565b610855600080549050610c79565b61085e30610d12565b8380156108685750825b80156108715750815b801561087a5750805b955050505050915091565b6000600254905090565b60007f0000000000000000000000000000000000000000000000000000000000000000905090565b60008082815481106108cc576108cb611608565b5b9060005260206000200160009054906101000a900473ffffffffffffffffffffffffffffffffffffffff169050919050565b60008080549050905090565b600080805490508260008151811061092557610924611608565b5b60200260200101516109379190611666565b9050600080828154811061094e5761094d611608565b5b9060005260206000200160009054906101000a900473ffffffffffffffffffffffffffffffffffffffff16905080600160006101000a81548173ffffffffffffffffffffffffffffffffffffffff021916908373ffffffffffffffffffffffffffffffffffffffff1602179055506000600160146101000a81548160ff021916908360018111156109e2576109e1610eaf565b5b0217905550600067ffffffffffffffff811115610a0257610a01610f97565b5b604051908082528060200260200182016040528015610a305781602001602082028036833780820191505090505b5060009080519060200190610a46929190610dd4565b504260028190555060008173ffffffffffffffffffffffffffffffffffffffff1647604051610a74906116c8565b60006040518083038185875af1925050503d8060008114610ab1576040519150601f19603f3d011682016040523d82523d6000602084013e610ab6565b606091505b5050905080610af1576040517fa1d04b3900000000000000000000000000000000000000000000000000000000815260040160405180910390fd5b8173ffffffffffffffffffffffffffffffffffffffff167f5b690ec4a06fe979403046eaeea5b3ce38524683c3001f662c8b5a829632f7df60405160405180910390a25050505050565b610bd784848484604051602401610b5594939291906116dd565b6040516020818303038152906040527f3b2a5ce0000000000000000000000000000000000000000000000000000000007bffffffffffffffffffffffffffffffffffffffffffffffffffffffff19166020820180517bffffffffffffffffffffffffffffffffffffffffffffffffffffffff8381831617835250505050610dab565b50505050565b610c758282604051602401610bf3929190611722565b6040516020818303038152906040527ff666715a000000000000000000000000000000000000000000000000000000007bffffffffffffffffffffffffffffffffffffffffffffffffffffffff19166020820180517bffffffffffffffffffffffffffffffffffffffffffffffffffffffff8381831617835250505050610dab565b5050565b610d0f81604051602401610c8d9190610e94565b6040516020818303038152906040527ff82c50f1000000000000000000000000000000000000000000000000000000007bffffffffffffffffffffffffffffffffffffffffffffffffffffffff19166020820180517bffffffffffffffffffffffffffffffffffffffffffffffffffffffff8381831617835250505050610dab565b50565b610da881604051602401610d26919061121f565b6040516020818303038152906040527f2c2ecbc2000000000000000000000000000000000000000000000000000000007bffffffffffffffffffffffffffffffffffffffffffffffffffffffff19166020820180517bffffffffffffffffffffffffffffffffffffffffffffffffffffffff8381831617835250505050610dab565b50565b60008151905060006a636f6e736f6c652e6c6f679050602083016000808483855afa5050505050565b828054828255906000526020600020908101928215610e4d579160200282015b82811115610e4c5782518260006101000a81548173ffffffffffffffffffffffffffffffffffffffff021916908373ffffffffffffffffffffffffffffffffffffffff16021790555091602001919060010190610df4565b5b509050610e5a9190610e5e565b5090565b5b80821115610e77576000816000905550600101610e5f565b5090565b6000819050919050565b610e8e81610e7b565b82525050565b6000602082019050610ea96000830184610e85565b92915050565b7f4e487b7100000000000000000000000000000000000000000000000000000000600052602160045260246000fd5b60028110610eef57610eee610eaf565b5b50565b6000819050610f0082610ede565b919050565b6000610f1082610ef2565b9050919050565b610f2081610f05565b82525050565b6000602082019050610f3b6000830184610f17565b92915050565b6000604051905090565b600080fd5b600080fd5b610f5e81610e7b565b8114610f6957600080fd5b50565b600081359050610f7b81610f55565b92915050565b600080fd5b6000601f19601f8301169050919050565b7f4e487b7100000000000000000000000000000000000000000000000000000000600052604160045260246000fd5b610fcf82610f86565b810181811067ffffffffffffffff82111715610fee57610fed610f97565b5b80604052505050565b6000611001610f41565b905061100d8282610fc6565b919050565b600067ffffffffffffffff82111561102d5761102c610f97565b5b602082029050602081019050919050565b600080fd5b600061105661105184611012565b610ff7565b905080838252602082019050602084028301858111156110795761107861103e565b5b835b818110156110a2578061108e8882610f6c565b84526020840193505060208101905061107b565b5050509392505050565b600082601f8301126110c1576110c0610f81565b5b81356110d1848260208601611043565b91505092915050565b600080604083850312156110f1576110f0610f4b565b5b60006110ff85828601610f6c565b925050602083013567ffffffffffffffff8111156111205761111f610f50565b5b61112c858286016110ac565b9150509250929050565b600080fd5b60008083601f84011261115157611150610f81565b5b8235905067ffffffffffffffff81111561116e5761116d611136565b5b60208301915083600182028301111561118a5761118961103e565b5b9250929050565b600080602083850312156111a8576111a7610f4b565b5b600083013567ffffffffffffffff8111156111c6576111c5610f50565b5b6111d28582860161113b565b92509250509250929050565b600073ffffffffffffffffffffffffffffffffffffffff82169050919050565b6000611209826111de565b9050919050565b611219816111fe565b82525050565b60006020820190506112346000830184611210565b92915050565b600080fd5b600067ffffffffffffffff82111561125a57611259610f97565b5b61126382610f86565b9050602081019050919050565b82818337600083830152505050565b600061129261128d8461123f565b610ff7565b9050828152602081018484840111156112ae576112ad61123a565b5b6112b9848285611270565b509392505050565b600082601f8301126112d6576112d5610f81565b5b81356112e684826020860161127f565b91505092915050565b60006020828403121561130557611304610f4b565b5b600082013567ffffffffffffffff81111561132357611322610f50565b5b61132f848285016112c1565b91505092915050565b60008115159050919050565b61134d81611338565b82525050565b600081519050919050565b600082825260208201905092915050565b60005b8381101561138d578082015181840152602081019050611372565b8381111561139c576000848401525b50505050565b60006113ad82611353565b6113b7818561135e565b93506113c781856020860161136f565b6113d081610f86565b840191505092915050565b60006040820190506113f06000830185611344565b818103602083015261140281846113a2565b90509392505050565b60006020828403121561142157611420610f4b565b5b600061142f84828501610f6c565b91505092915050565b600060408201905061144d6000830185611210565b61145a6020830184611210565b9392505050565b60006060820190506114766000830186610e85565b6114836020830185610e85565b6114906040830184610e85565b949350505050565b6000819050919050565b6114ab81611498565b82525050565b600067ffffffffffffffff82169050919050565b6114ce816114b1565b82525050565b600061ffff82169050919050565b6114eb816114d4565b82525050565b600063ffffffff82169050919050565b61150a816114f1565b82525050565b600060a08201905061152560008301886114a2565b61153260208301876114c5565b61153f60408301866114e2565b61154c6060830185611501565b6115596080830184611501565b9695505050505050565b60008151905061157281610f55565b92915050565b60006020828403121561158e5761158d610f4b565b5b600061159c84828501611563565b91505092915050565b7f4e487b7100000000000000000000000000000000000000000000000000000000600052601160045260246000fd5b60006115df82610e7b565b91506115ea83610e7b565b9250828210156115fd576115fc6115a5565b5b828203905092915050565b7f4e487b7100000000000000000000000000000000000000000000000000000000600052603260045260246000fd5b7f4e487b7100000000000000000000000000000000000000000000000000000000600052601260045260246000fd5b600061167182610e7b565b915061167c83610e7b565b92508261168c5761168b611637565b5b828206905092915050565b600081905092915050565b50565b60006116b2600083611697565b91506116bd826116a2565b600082019050919050565b60006116d3826116a5565b9150819050919050565b60006080820190506116f26000830187611344565b6116ff6020830186611344565b61170c6040830185611344565b6117196060830184611344565b95945050505050565b60006040820190506117376000830185610e85565b6117446020830184610e85565b939250505056fea2646970667358221220dfe80e2f0c499b1dd1167b24b68c3e58127152e5d4cbe947e26720b46ccbed4f64736f6c63430008090033",
  "devdoc": {
    "author": "AAIIWTIF",
    "details": "This implements Chainlink VRF v2 and Chainlink Keeper",
    "kind": "dev",
    "methods": {},
    "title": "A sample Raffle Contract",
    "version": 1
  },
  "userdoc": {
    "kind": "user",
    "methods": {},
    "notice": "This contract is for creating an untamperable decentralized smart contract",
    "version": 1
  },
  "storageLayout": {
    "storage": [
      {
        "astId": 198,
        "contract": "contracts/Raffle.sol:Raffle",
        "label": "s_players",
        "offset": 0,
        "slot": "0",
        "type": "t_array(t_address_payable)dyn_storage"
      },
      {
        "astId": 215,
        "contract": "contracts/Raffle.sol:Raffle",
        "label": "s_recentWinner",
        "offset": 0,
        "slot": "1",
        "type": "t_address"
      },
      {
        "astId": 218,
        "contract": "contracts/Raffle.sol:Raffle",
        "label": "s_raffleState",
        "offset": 20,
        "slot": "1",
        "type": "t_enum(RaffleState)193"
      },
      {
        "astId": 220,
        "contract": "contracts/Raffle.sol:Raffle",
        "label": "s_lastTimeStamp",
        "offset": 0,
        "slot": "2",
        "type": "t_uint256"
      }
    ],
    "types": {
      "t_address": {
        "encoding": "inplace",
        "label": "address",
        "numberOfBytes": "20"
      },
      "t_address_payable": {
        "encoding": "inplace",
        "label": "address payable",
        "numberOfBytes": "20"
      },
      "t_array(t_address_payable)dyn_storage": {
        "base": "t_address_payable",
        "encoding": "dynamic_array",
        "label": "address payable[]",
        "numberOfBytes": "32"
      },
      "t_enum(RaffleState)193": {
        "encoding": "inplace",
        "label": "enum Raffle.RaffleState",
        "numberOfBytes": "1"
      },
      "t_uint256": {
        "encoding": "inplace",
        "label": "uint256",
        "numberOfBytes": "32"
      }
    }
  }
}